:060000000A128A110C280F
:10000800FE00030EF1000A08F2000A128A118D2878
:100018000A128A110F28F801F901FA0183010A125C
:100028008A1116280A128A114C200A128A11F8011C
:10003800FA01F90183120313061823282428262815
:10004800FA01FA0A061C29282A2834287A03031DEB
:100058002E282F2834280130F7007708F807FA01EE
:100068008618372838283A28F901F90A861C3D28C5
:100078003E2846287903031D422843284628013094
:10008800F802F901780888001E280A128A110C283B
:10009800831603178801890183160313850103302A
:1000A80086008801811303309500831203138601AB
:1000B8008501880189017030831603138F040F149A
:1000C8000B178B17831203138C11831603138C15CC
:1000D8008516F301F401F50124300A128A117720FC
:1000E8000A128A110800F600831603138712761D78
:1000F8007E287F2883287508940087158728730829
:10010800750494008711760874048312031394000D
:100118000800831203138C1D922893289C287808C2
:100128000A128A11A3200A128A11831203138C114E
:1001380072088A00710E8300FE0E7E0E0900F00020
:0A01480070088312031393000800EF
:08400000FF3FFF3FFF3FFF3FC0
:04400E00D420FF3F7C
:00000001FF
