:100000000A128A11EF2F83160313141C08280928DB
:10001000032808008312031307110330831203130C
:10002000A1009730A000A00B1328A10B13280030CB
:100030000A168A150D210A128A110A168A1521211B
:100040000A128A1183120313A000A101A201A301C5
:100050002308F3002208F2002108F1002008F00034
:1000600000300A168A1589260A128A117308831627
:100070000313CF007208CE007108CD007008CC00C9
:10008000033083120313A1009730A000A00B462871
:10009000A10B4628831203130715080083160313C8
:1000A000C100A130A5002508AE00D82F253042069A
:1000B00003195B285C2868284208A50041088400D1
:1000C0002508831380000130A5002508C107D82F1B
:1000D000AF01B001200884000A128A150A200A1212
:1000E0008A112E3A031D75287628BB283017013057
:1000F000A5002508A007BF01C001AA280A30F0000A
:100100000030F100831603134008F3003F08F200AB
:100110000A168A15D0210A128A1171088316031350
:10012000C0007008BF00200884000A128A150A2047
:100130000A128A11D03EA500FF3003180030A60035
:100140002508BF070318C00A2608C0070130A5000C
:100150002508A007200884000A128A150A200A121E
:100160008A110A168A1542210A128A110318B9281F
:10017000BA287E28C128BF01C0013016C128301519
:10018000E328013083160313A007FF302007840003
:100190000A128A150A200A128A11C200A500A601B5
:1001A0002608003A0319D528D82F2508003A031944
:1001B000EA2F643A0319E328023A0319BF280F3AD9
:1001C0000319E328D82F00302F05A500073030058C
:1001D000A600250826040319EE28EF28B02E301EAD
:1001E000F228F328F7280630BF000030C0002E08A0
:1001F000840083130008BB00840A0008BC00840A42
:100200000008BD00840A0008BE000430A5002508CF
:10021000AE073E08F3003D08F2003C08F1003B0841
:10022000F0000030F7000030F6000030F50000303C
:10023000F4000A168A15E7250A128A1103182129E3
:1002400022293F29831603133E08F3003D08F200DC
:100250003C08F1003B08F0000A168A152A210A1210
:100260008A11730883160313BE007208BD0071085B
:10027000BC007008BB000330AF040030B00483162C
:100280000313B101B2013E08F3003D08F2003C083F
:10029000F1003B08F0000030F7000030F6000030BD
:1002A000F5000030F4000A168A15CF230A128A11CD
:1002B00003185B295C294C2A0310831603133D0D98
:1002C0003E0D823EB100FF3003180030B200FF3017
:1002D000B1070318B20AFF30B2070330F000003054
:1002E000F1003208F3003108F2000A168A15D02115
:1002F0000A128A11710883160313B2007008B10044
:100300000A30F7000030F8003208FA003108F9002E
:100310000A128A15D7200A128A1178088316031345
:10032000B2007708B100B21F962997299D29FF30A6
:10033000B1070318B20AFF30B2073103FF3A0A12BD
:100340008A1540210A128A11831203134108831669
:100350000313B60083120313400883160313B5007A
:10036000831203133F0883160313B400831203138D
:100370003E0883160313B3003E0883120313A7003D
:10038000831603133D0883120313A6008316031379
:100390003C0883120313A500831603133B08831242
:1003A0000313A40083160313360883120313AB0050
:1003B00083160313350883120313AA00831603134D
:1003C000340883120313A90083160313330883121E
:1003D0000313A8000A128A159F240A128A11831295
:1003E0000313270883160313B6008312031326088A
:1003F00083160313B5008312031325088316031312
:10040000B40083120313240883160313B3003608C1
:10041000F3003508F2003408F1003308F0003F30F3
:10042000F7008030F6000030F5000030F4000A16C6
:100430008A15E7250A128A1103181F2A202A292A59
:10044000FF3083160313B1070318B20AFF30B20757
:100450004C2A831603133608F3003508F2003408DB
:10046000F1003308F0004130F7002030F600003092
:10047000F5000030F4000A168A15E7250A128A11E1
:10048000031C432A442A4C2A013083160313B10764
:100490000318B20A0030B207831603134008803AEB
:1004A000FF0080307F02031D572A0D303F020318E2
:1004B0005A2A5B2AA22A831603133F080A168A11B6
:1004C00053210A128A11831203134108D5004008F0
:1004D000D4003F08D3003E08D200831603133E0821
:1004E00083120313D900831603133D0883120313E9
:1004F000D800831603133C0883120313D700831616
:1005000003133B0883120313D6000A168A117825B9
:100510000A128A1183120313550883160313BE00AF
:1005200083120313540883160313BD0083120313AD
:10053000530883160313BC00831203135208831657
:100540000313BB00831603133208803AFF00803088
:100550007F02031DAD2A0A3031020318B02AB12AE6
:10056000022B831603133E08F3003D08F2003C08FB
:10057000F1003B08F0000030F7000030F6000030DA
:10058000F5000030F4000A168A15CF230A128A11EA
:100590000318CB2ACC2A742B831603133E0883122C
:1005A0000313D400831603133D0883120313D300EF
:1005B000831603133C0883120313D200831603131C
:1005C0003B0883120313D1000A168A1119200A125C
:1005D0008A11831203135408530452045104031D57
:1005E000F22AF32A742B831603133208803AFF0091
:1005F00080307F02031DFE2A02303102031C012BD2
:10060000022B742B831603133608F3003508F2000F
:100610003408F1003308F0004030F7008930F6006C
:100620007030F5005F30F4000A168A15E7250A12CB
:100630008A1103181C2B1D2B262BF730831603134E
:10064000B1070318B20AFF30B2072E2BF830831619
:100650000313B1070318B20AFF30B20731080A12B8
:100660008A1540210A128A11831203134108831646
:100670000313B60083120313400883160313B50057
:10068000831203133F0883160313B400831203136A
:100690003E0883160313B3003E08F3003D08F20042
:1006A0003C08F1003B08F0003608F7003508F6007A
:1006B0003408F5003308F4000A168A1195200A124E
:1006C0008A11730883160313BA007208B9007108FF
:1006D000B8007008B7000030BE000030BD00003028
:1006E000BC000030BB00F82B831603133E088312B6
:1006F0000313D400831603133D0883120313D3009E
:10070000831603133C0883120313D20083160313CA
:100710003B0883120313D1000A168A1119200A120A
:100720008A1183120313540883160313BA00831229
:100730000313530883160313B900831203135208DB
:1007400083160313B800831203135108831603138F
:10075000B7003A08F3003908F2003808F10037080A
:10076000F00000300A168A1589260A128A117308C9
:1007700083120313E9007208E8007108E7007008AB
:10078000E600831603133E0883120313ED0083165D
:1007900003133D0883120313EC00831603133C0874
:1007A00083120313EB00831603133B088312031316
:1007B000EA000A168A15AC210A128A118312031361
:1007C000690883160313BE00831203136808831697
:1007D0000313BD0083120313670883160313BC00C1
:1007E00083120313660883160313BB00B101B20121
:1007F000C201C20A4208A50001300310A50DFF3E48
:10080000031DFD2B0310250D693E84000A128A1575
:100810000A200A128A11A6000A128A150A200A1250
:100820008A11A7000A128A150A200A128A11A80042
:100830000A128A150A200A128A11A90029083A0206
:10084000031D2C2C28083902031D2C2C27083802E4
:10085000031D2C2C2608370203182F2C302C312C8A
:100860003B2C0130A5002508C2070A304206031DB3
:100870003A2C3B2CFA2B03302F05A5000030300515
:10088000A600250826040319462C472CD92C2D3008
:10089000A500410884002508831380000130A500CD
:1008A0002508C107D92C4208A50001300310A50D69
:1008B000FF3E031D562C0310250D693E84000A12CD
:1008C0008A150A200A128A11F0000A128A150A20D3
:1008D0000A128A11F1000A128A150A200A128A11D4
:1008E000F2000A128A150A200A128A11F3003A0845
:1008F000F7003908F6003808F5003708F4000A1642
:100900008A1581250A128A11730883160313B6000B
:100910007208B5007108B4007008B300003083128B
:100920000313A3000030A2000030A1000A30A00091
:1009300083160313360883120313A70083160313C9
:10094000350883120313A600831603133408831299
:100950000313A50083160313330883120313A400A3
:100960000A168A151D240A128A11831203132308FA
:1009700083160313B600831203132208831603138E
:10098000B50083120313210883160313B4008312E6
:100990000313200883160313B3003308303EA50069
:1009A000410884002508831380000130A500250834
:1009B000C1070130C202420A031DDF2CE02C532C78
:1009C000F42C303083160313A50041088400250859
:1009D000831380000130A5002508C107FF30B1074F
:1009E0000318B20AFF30B2073208803AFF008030A5
:1009F0007F02031DFD2C013031020318002D012D53
:100A0000E12C831603134008803AFF0080307F02F8
:100A1000031D0C2D09303F02031C0F2D102D172D27
:100A2000083083160313A5002508C2001D2D831668
:100A300003133F08A5002508C2004208A500A6012F
:100A40002508BF022608031CC003C0024208031980
:100A50002A2D2B2D362D2E30A50041088400250887
:100A6000831380000130A5002508C10742080A123F
:100A70008A1540210A128A11831203134108831632
:100A80000313AD0083120313400883160313AC0055
:100A9000831203133F0883160313AB00831203135F
:100AA0003E0883160313AA002D0883120313AB001C
:100AB000831603132C0883120313AA00831603134F
:100AC0002B0883120313A900831603132A08831229
:100AD0000313A800831603133E0883120313A70011
:100AE000831603133D0883120313A6008316031312
:100AF0003C0883120313A500831603133B088312DB
:100B00000313A4000A128A159F240A128A11831261
:100B100003132708D4002608D3002508D200240890
:100B2000D1000A168A1119200A128A11831203139E
:100B3000540883160313BA00831203135308831651
:100B40000313B90083120313520883160313B8006A
:100B500083120313510883160313B700902E420823
:100B6000A50001300310A50DFF3E031DB22D03109B
:100B7000250D693E84000A128A150A200A128A117C
:100B8000F0000A128A150A200A128A11F1000A12CC
:100B90008A150A200A128A11F2000A128A150A20FE
:100BA0000A128A11F3003A08F7003908F6003808EB
:100BB000F5003708F4000A168A1581250A128A11F1
:100BC000730883160313B6007208B5007108B400E9
:100BD0007008B300003083120313A3000030A2009A
:100BE0000030A1000A30A0008316031336088312D8
:100BF0000313A70083160313350883120313A600FB
:100C000083160313340883120313A50083160313FA
:100C1000330883120313A4000A168A151D240A122E
:100C20008A1183120313230883160313B600831259
:100C30000313220883160313B5008312031321083C
:100C400083160313B40083120313200883160313BF
:100C5000B3003308303EA500410884002508831303
:100C600080000130A5002508C1074208A500013019
:100C70000310A50DFF3E031D382E0310250D693E00
:100C800084000A128A150A200A128A118312031399
:100C9000A0000A128A150A200A128A11A1000A125B
:100CA0008A150A200A128A11A2000A128A150A203D
:100CB0000A128A11A300831603133A08831203133E
:100CC000A70083160313390883120313A6008316A3
:100CD0000313380883120313A50083160313370880
:100CE00083120313A4000A168A151D240A128A11FE
:100CF00083120313230883160313BA00831203130A
:100D0000220883160313B9008312031321088316E4
:100D10000313B80083120313200883160313B700CC
:100D20000130C202420A031D962E972EAF2DA92E26
:100D30003030A5004108840025088313800001306D
:100D4000A5002508C107FF30BF070318C00AFF3000
:100D5000C0073F084004031DAE2EAF2E982ED82F9B
:100D60002E08840083130008A500840A0008A6004A
:100D70002508B7002608B8000030B81BFF30B900BE
:100D8000BA000230A5002508AE07BA1FC82EC92E2A
:100D9000D82E0330AF040030B004B709B809B90940
:100DA000BA09B70A0319B80A0319B90A0319BA0A22
:100DB0003F084004031DDD2EDE2EEC2E3A083904D8
:100DC00038043704031DE52EE62EEC2E0130BF0754
:100DD0000318C00A0030C007C201C20A4208A500B9
:100DE00001300310A50DFF3E031DF12E0310250D4C
:100DF000693E84000A128A150A200A128A11A60086
:100E00000A128A150A200A128A11A7000A128A15E4
:100E10000A200A128A11A8000A128A150A200A1248
:100E20008A11A90029083A02031D202F2808390237
:100E3000031D202F27083802031D202F2608370204
:100E40000318232F242F252F2F2F0130A50025082D
:100E5000C2070A304206031D2E2F2F2FEE2E400808
:100E6000803A803C031D362F3F0842020318392F79
:100E70003A2F3B2F532F831603134008803AA500C7
:100E800080302502031D462F42083F020318492FD8
:100E90004A2F532F831603134208A500A6012508E5
:100EA000BF002608C0000330831603132F05A500DA
:100EB00000303005A600250826040319602F612F95
:100EC000CA2F2D30A5004108840025088313800017
:100ED0000130A5002508C107CA2F00308312031373
:100EE000A3000030A2000030A1000A30A000831649
:100EF00003133F08A50001300310A50DFF3E031D9D
:100F00007C2F0310250D693E84000A128A150A20E1
:100F10000A128A11F0000A128A150A200A128A118E
:100F2000F1000A128A150A200A128A11F2000A1226
:100F30008A150A200A128A11F3003A08F7003908C4
:100F4000F6003808F5003708F4000A168A158125DE
:100F50000A128A11730883120313A7007208A600ED
:100F60007108A5007008A4000A168A151D240A122B
:100F70008A11831203132008303E83160313A60040
:100F80002608C2004208A5004108840025088313F2
:100F90008000682FFF30BF070318C00AFF30C0076A
:100FA0003F0A031DD72F400A031DD72FD82F6D2FBF
:100FB0000130A007FF30200784000A128A150A209A
:100FC0000A128A11A5002508C2004208031DE92F54
:100FD000EA2F5628410884008313800108008312F9
:100FE0000313EE01EF018313C8308400E3300A16C7
:100FF0008A1519210A128A1183010A168A115E2B99
:10100000FF1B0A2883137F1883170008840A03191B
:10101000FF0A080008308A000408840A82070034A6
:101020000034003480343F34003400342034413400
:1010300000340034C8344234003400347A34443448
:10104000003440341C34463400345034C334473404
:1010500000342434743449348034963418344B3496
:101060002034BC34BE344C3428346B346E344E34AB
:10107000F934023415345034EC347834AD346034FF
:10108000CA34F234493471340034003480343F348B
:10109000CD34CC34CC343D340A34D73423343C34CE
:1010A0006F34123483343A341734B734D13438348B
:1010B000AC34C53427343734BD3437348634353412
:1010C0009534BF34D63433347734CC342B34323483
:1010D0005F34703489343034FF34E634DB342E34FA
:1010E0000834E5343C341E3460344234A2340D34C8
:1010F00001340034003400340A3400340034003445
:101100006434003400340034E834033400340034F0
:101110001034273400340034A034863401340034D1
:10112000403442340F3400348034963498340034E0
:101130000034E134F53405340034CA349A343B3495
:10114000533431343A34203420342034533432345C
:101150003A342034203420342034533433343A3475
:10116000003425342E34323466345634203400347E
:1011700020342034203420342034003425342E34DC
:10118000323466344334003425346434203400343B
:101190002534643400340A340034F000831203131D
:1011A0000C1ED328D428CE2870089900080083127A
:1011B0000313A101F81FDD28DE28E528F709F80947
:1011C000F70A0319F80AA101A10AFA1FE828E92879
:1011D000F228F909FA09F90A0319FA0A0130FB00A1
:1011E0007B08A106A201A301770878040319F92856
:1011F000FA283129A001A00A082901300310F70DAF
:10120000F80DFF3E031DFE280130FB007B08A00700
:10121000F81F0B290C29FD2801300310A20DA30D86
:10122000FF3E031D0D2978087A02031D192977084E
:101230007902031C1C291D2924297708F902780842
:10124000031CFA03FA02221401300310F80CF70C05
:10125000FF3E031D25290130A002031D302931293D
:101260000C2921080319352936293B29A209A3098C
:10127000A20A0319A30A2308F8002208F7000800AD
:1012800083120313D000D01F46294729F42AD0091E
:10129000D00A5008803A123E031C4F295029382AA0
:1012A0000A30F7000030F8005008F200F301F21B9A
:1012B000F3036430F0000030F1000A168A15CB24E5
:1012C0000A128A157108FA007008F9000A128A15C4
:1012D000D7200A128A15770883120313C20001303F
:1012E0000310C20DFF3E031D70290310420D593E2D
:1012F00084000A128A150A200A128A15C3000A12EB
:101300008A150A200A128A15C4000A128A150A20B0
:101310000A128A15C5000A128A150A200A128A15AD
:10132000C6004608A7004508A6004408A5004308D3
:10133000A4006430F7000030F8005008F900FA010A
:10134000F91BFA030A128A15D7200A128A157708A0
:1013500083120313C70001300310C70DFF3E031DA6
:10136000AC290310470D7D3E84000A128A150A201D
:101370000A128A15C8000A128A150A200A128A154A
:10138000C9000A128A150A200A128A15CA000A120E
:101390008A150A200A128A15CB004B08AB004A08AE
:1013A000AA004908A9004808A8000A128A159F2423
:1013B0000A128A15831203132708CF002608CE00CD
:1013C0002508CD002408CC000A30F0000030F100E0
:1013D0005008F200F301F21BF3030A168A15CB241E
:1013E0000A128A15700883120313C2000130031019
:1013F000C20DFF3E031DF7290310420D353E840048
:101400000A128A150A200A128A15C3000A128A15BE
:101410000A200A128A15C4000A128A150A200A1222
:101420008A15C5000A128A150A200A128A15C600F2
:101430004608A7004508A6004408A5004308A400E4
:101440004F08AB004E08AA004D08A9004C08A800A0
:101450000A128A159F240A128A1583120313270879
:10146000C1002608C0002508BF002408BE009E2C2D
:101470005008803A753E031C3E2A3F2AC72A0A308C
:10148000F0000030F1005008F200F301F21BF3030A
:101490000A168A15CB240A128A15700883120313C0
:1014A000C20001300310C20DFF3E031D522A03107B
:1014B000420D353E84000A128A150A200A128A1546
:1014C000C3000A128A150A200A128A15C4000A12D9
:1014D0008A150A200A128A15C5000A128A150A20DE
:1014E0000A128A15C6004608A7004508A600440847
:1014F000A5004308A4000A30F7000030F8005008A7
:10150000F900FA01F91BFA030A128A15D7200A1208
:101510008A15770883120313C70001300310C70D23
:10152000FF3E031D8E2A0310470D593E84000A1208
:101530008A150A200A128A15C8000A128A150A207A
:101540000A128A15C9000A128A150A200A128A1577
:10155000CA000A128A150A200A128A15CB004B0803
:10156000AB004A08AA004908A9004808A8000A12C6
:101570008A159F240A128A15831203132708C100B3
:101580002608C0002508BF002408BE009E2C500875
:10159000C20001300310C20DFF3E031DCA2A031012
:1015A000420D353E84000A128A150A200A128A1555
:1015B000C3000A128A150A200A128A15C4000A12E8
:1015C0008A150A200A128A15C5000A128A150A20ED
:1015D0000A128A15C6004608C1004508C000440822
:1015E000BF004308BE009E2C5008803A123E031CE8
:1015F000FA2AFB2AE32B0A30F7000030F8005008E3
:10160000F200F301F21BF3036430F0000030F1004C
:101610000A168A15CB240A128A157108FA00700876
:10162000F9000A128A15D7200A128A157708831240
:101630000313C20001300310C20DFF3E031D1B2B1C
:101640000310420D253E84000A128A150A200A1250
:101650008A15C3000A128A150A200A128A15C400C4
:101660000A128A150A200A128A15C5000A128A155A
:101670000A200A128A15C6004608A7004508A600D7
:101680004408A5004308A4006430F7000030F800C7
:101690005008F900FA01F91BFA030A128A15D7203B
:1016A0000A128A15770883120313C700013003104A
:1016B000C70DFF3E031D572B0310470D493E840005
:1016C0000A128A150A200A128A15C8000A128A15F7
:1016D0000A200A128A15C9000A128A150A200A125B
:1016E0008A15CA000A128A150A200A128A15CB0026
:1016F0004B08AB004A08AA004908A9004808A800FE
:101700000A128A159F240A128A15831203132708C6
:10171000CF002608CE002508CD002408CC000A30D2
:10172000F0000030F1005008F200F301F21BF30367
:101730000A168A15CB240A128A157008831203131D
:10174000C20001300310C20DFF3E031DA22B031087
:10175000420D013E84000A128A150A200A128A15D7
:10176000C3000A128A150A200A128A15C4000A1236
:101770008A150A200A128A15C5000A128A150A203B
:101780000A128A15C6004608A7004508A6004408A4
:10179000A5004308A4004F08AB004E08AA004D085E
:1017A000A9004C08A8000A128A159F240A128A155B
:1017B000831203132708C1002608C0002508BF00B4
:1017C0002408BE009E2C5008803A753E031CE92B6D
:1017D000EA2B722C0A30F0000030F1005008F200C1
:1017E000F301F21BF3030A168A15CB240A128A1599
:1017F000700883120313C20001300310C20DFF3EB4
:10180000031DFD2B0310420D013E84000A128A15B0
:101810000A200A128A15C3000A128A150A200A121F
:101820008A15C4000A128A150A200A128A15C500F0
:101830000A128A150A200A128A15C6004608A7004D
:101840004508A6004408A5004308A4000A30F70094
:101850000030F8005008F900FA01F91BFA030A12E7
:101860008A15D7200A128A15770883120313C70036
:1018700001300310C70DFF3E031D392C0310470D27
:10188000253E84000A128A150A200A128A15C80009
:101890000A128A150A200A128A15C9000A128A1524
:1018A0000A200A128A15CA000A128A150A200A1288
:1018B0008A15CB004B08AB004A08AA004908A900CA
:1018C0004808A8000A128A159F240A128A15831252
:1018D00003132708C1002608C0002508BF002408FC
:1018E000BE009E2C5008C20001300310C20DFF3E06
:1018F000031D752C0310420D013E84000A128A1547
:101900000A200A128A15C3000A128A150A200A122E
:101910008A15C4000A128A150A200A128A15C500FF
:101920000A128A150A200A128A15C6004608C10042
:101930004508C0004408BF004308BE0008008312E9
:10194000031327088039AC002C08B1002708AC002D
:101950002C07AD002D08B700A61FAF2CB02CB12C62
:10196000371437080319B52CB62CC52C370A031DBC
:10197000BA2CBB2CC32C0030A7000030A6000030CE
:10198000A5000030A400A617CD2C0030A700003021
:10199000A6000030A5000030A4002B088039AC0060
:1019A0002C08B1062B08AC002C07AD002D08B600A2
:1019B000AA1FDB2CDC2CDD2C361436080319E12C95
:1019C000E22CF12C360A031DE62CE72CEF2C00301C
:1019D000AB000030AA000030A9000030A800AA1710
:1019E000F92C0030AB000030AA000030A900003014
:1019F000A80036080319FD2CFE2C032D3708031D03
:101A0000022D032D0C2D0030A7000030A600003061
:101A1000A5000030A400FF2F2408AC002C08F00023
:101A20002A080A168A151B220A128A1571088312BF
:101A30000313BD007008BC003C08AC00AD01AE0152
:101A4000AF012F08B5002E08B4002D08B3002C08F4
:101A5000B2003D08AC00AD01AE01AF012F08BB00E4
:101A60002E08BA002D08B9002C08B8002508AC00D3
:101A70002C08F00029080A168A151B220A128A155A
:101A8000710883120313BD007008BC003C08AC0051
:101A9000AD01AE01AF012C08B2072D0803110318E8
:101AA000013E0319542DB3072E0803110318013EFC
:101AB00003195B2DB4072F0803110318013E031906
:101AC000622DB5073D08AC00AD01AE01AF012C0899
:101AD000B8072D0803110318013E0319702DB9072B
:101AE0002E0803110318013E0319772DBA072F089A
:101AF00003110318013E03197E2DBB072608AC0015
:101B00002C08F00028080A168A151B220A128A15CA
:101B1000710883120313BD007008BC003C08AC00C0
:101B2000AD01AE01AF012C08B2072D080311031857
:101B3000013E03199C2DB3072E0803110318013E23
:101B40000319A32DB4072F0803110318013E03192D
:101B5000AA2DB5073D08AC00AD01AE01AF012C08C0
:101B6000B8072D0803110318013E0319B82DB90752
:101B70002E0803110318013E0319BF2DBA072F08C1
:101B800003110318013E0319C62DBB070830AC0032
:101B90000310B20DB30DB40DB50DAC0BC82D250857
:101BA000AC002C08F00028080A168A151B220A121D
:101BB0008A15710883120313BD007008BC003C082D
:101BC000AC003D08AD00AE01AF012C08B2072D08F6
:101BD00003110318013E0319EE2DB3072E0803115C
:101BE0000318013E0319F52DB4072F08031103183C
:101BF000013E0319FC2DB5072408AC002C08F000A9
:101C000029080A168A151B220A128A1571088312DE
:101C10000313BD007008BC003C08AC003D08AD00DB
:101C2000AE01AF012C08B2072D0803110318013EC5
:101C300003191B2EB3072E0803110318013E0319C5
:101C4000222EB4072F0803110318013E0319292E71
:101C5000B5070830AC000310B20DB30DB40DB50DCF
:101C6000AC0B2B2E2408AC002C08F00028080A1618
:101C70008A151B220A128A15710883120313BD00EC
:101C80007008BC003C08AC003D08AD00AE01AF01DF
:101C90002C08B2072D0803110318013E0319512E19
:101CA000B3072E0803110318013E0319582EB40779
:101CB0002F0803110318013E03195F2EB5072508ED
:101CC000AC002C08F0002A080A168A151B220A12FA
:101CD0008A15710883120313BD007008BC003C080C
:101CE000AC003D08AD00AE01AF012C08B8072D08CF
:101CF00003110318013E03197E2EB9072E080311A4
:101D00000318013E0319852EBA072F080311031883
:101D1000013E03198C2EBB072608AC002C08F000EE
:101D200029080A168A151B220A128A1571088312BD
:101D30000313BD007008BC003C08AC003D08AD00BA
:101D4000AE01AF012C08B8072D0803110318013E9E
:101D50000319AB2EB9072E0803110318013E03190E
:101D6000B22EBA072F0803110318013E0319B92E2A
:101D7000BB072608AC002C08F0002A080A168A15B2
:101D80001B220A128A15710883120313BD00700802
:101D9000BC003C08AC003D08AD00AE01AF0108300E
:101DA0000310AC0DAD0DAE0DAF0DFF3E031DD02EDB
:101DB0002C08B8072D0803110318013E0319E12E62
:101DC000B9072E0803110318013E0319E82EBA07BC
:101DD0002F0803110318013E0319EF2EBB07320829
:101DE000AC003308AD003408AE003508AF00183041
:101DF0000310AF0CAE0CAD0CAC0CFF3E031DF82E67
:101E00002C08B8072D0803110318013E0319092FE8
:101E1000B9072E0803110318013E0319102FBA0742
:101E20002F0803110318013E0319172FBB070830B1
:101E3000AC000310B20DB30DB40DB50DAC0B192FE2
:101E400037083607AC00AD01AD0D2C08823EBC0052
:101E50002D080318013EFF3EBD004B2F0130AC00A2
:101E60000310B80DB90DBA0DBB0DAC0B302FB51F5B
:101E70003A2F3B2F3C2F38140130AC000310B20D29
:101E8000B30DB40DB50DAC0B3E2FFF30BC070318DE
:101E9000BD0AFF30BD07BA1F4E2F4F2F2E2FB601A0
:101EA000B51F532F542F702FFF303205AC00FF3079
:101EB0003305AD00FF303405AE007F303505AF008F
:101EC0002F082E042D042C040319672F682F6B2F65
:101ED000B601B60A702F381C6E2F6F2F702F682F27
:101EE00036080319742F752FA62F0130B80700305C
:101EF00003180130B907003003180130BA07003069
:101F000003180130BB073B1C862F872FA62F3808EC
:101F1000AC003908AD003A08AE003B08AF00013014
:101F2000B0002F0DAF0CAE0CAD0CAC0CB00B912F64
:101F30002F08BB002E08BA002D08B9002C08B800E5
:101F40000130BC070318BD0A0030BD073D08803AC8
:101F5000FF0080307F02031DAF2FFF303C02031CC7
:101F6000B22FB32FBE2F7F3083120313BB008030FC
:101F7000BA000030B9000030B800F32F8312031309
:101F80003D08803AFF0080307F02031DC92F0130D9
:101F90003C020318CC2FCD2FD92F0030831203130E
:101FA000BB000030BA000030B9000030B800B10109
:101FB000F32F831203133C08AC002C08B700FF304A
:101FC000B805FF30B9057F30BA050030BB05371CB6
:101FD000EA2FEB2FEC2FBA173708AC0003102C0CAC
:101FE000AD002D08BB003108AC002C08BB043B0839
:101FF000A7003A08A6003908A5003808A400080080
:10200600F300831603138712731D0A280B280F2863
:1020160072089400871513287008720494008711BB
:1020260073087104831203139400080003108312CB
:102036000313530D540DD5005508DB005B08031D33
:10204600252826282F280030D4000030D300003061
:10205600D2000030D10094285108D5005208D6008D
:102066005308D7005408D8001F300310D80CD70CDB
:10207600D60CD50CFF3E031D38285508D900590843
:10208600DA00D317FF30D105FF30D205FF30D30574
:102096000030D4059630DB02DB1F522853286D280A
:1020A6005B08803A973E031859285A285B28262849
:1020B60001300310D40CD30CD20CD10CFF3E031DFF
:1020C6005C280130D5005508DB07031D6B286C28FA
:1020D6005B28842820305B02031C722873287F2823
:1020E60026280130D5000310D10DD20DD30DD40D05
:1020F600D50B76280130DB025B08031D8328842874
:1021060074285A080319882889289428D109D209DD
:10211600D309D409D10A0319D20A0319D30A031918
:10212600D40A08000310720D730DF80078088312A4
:102136000313A5002508031DA128A228AB280030FB
:10214600F3000030F2000030F1000030F0005229B8
:102156000310760D770DF8007808A4002408031DF7
:10216600B528B628B728A228F217FF30F005FF30A9
:10217600F105FF30F2050030F305F617FF30F405E0
:10218600FF30F505FF30F6050030F7050030A300F7
:102196000030A2000030A1000030A0007F30A50270
:1021A600A0302407F8007808A5022030F800780847
:1021B600A4000130F8000310A00DA10DA20DA30D7F
:1021C600F80BDE2877087302031DF32876087202DF
:1021D600031DF32875087102031DF32874087002A5
:1021E600031CF628F72806297408F0027508031C54
:1021F600750FF1027608031C760FF2027708031CAE
:10220600770FF30220140130F8000310F00DF10DE2
:10221600F20DF30DF80B08290130A402031D142951
:102226001529DC28A51F1829192933292508803ADC
:102236009F3E03181F2920292129A22801300310B7
:10224600A30CA20CA10CA00CFF3E031D22290130F9
:10225600F8007808A507031D3129322921294A29C2
:1022660020302502031C382939294529A2280130A6
:10227600F8000310A00DA10DA20DA30DF80B3C292B
:102286000130A5022508031D49294A293A292308B0
:10229600F3002208F2002108F1002008F0000800EF
:1022A60083120313D1006E305102031C5B295C2993
:1022B600692A3F30A7000030A6000030A500003094
:1022C600A4006430F6000030F7005108C200C301D4
:1022D6004208F8004308F9000A168A158B230A16E5
:1022E6008A11760883120313C40001300310C40D4B
:1022F600FF3E031D79290310440D7D3E84000A121A
:102306008A150A200A168A11C5000A128A150A2099
:102316000A168A11C6000A128A150A200A168A1196
:10232600C7000A128A150A200A168A11C800480828
:10233600AB004708AA004608A9004508A8000A12EB
:102346008A159F240A168A11831203132708D000C0
:102356002608CF002508CE002408CD000A30F60056
:102366000030F7005108C200C3014208F2004308DA
:10237600F3006430F0000030F1000A168A1594224A
:102386000A168A117108F9007008F8000A168A15EB
:102396008B230A168A11760883120313C4000130B0
:1023A6000310C40DFF3E031DD3290310440D593EEF
:1023B60084000A128A150A200A168A11C5000A1212
:1023C6008A150A200A168A11C6000A128A150A20D8
:1023D6000A168A11C7000A128A150A200A168A11D5
:1023E600C8004808A7004708A6004608A5004508F3
:1023F600A4005008AB004F08AA004E08A9004D08DB
:10240600A8000A128A159F240A168A11831203133A
:102416002708CC002608CB002508CA002408C900D6
:102426000A30F0000030F1005108C200C301420832
:10243600F2004308F3000A168A1594220A168A1136
:10244600700883120313C40001300310C40DFF3E4D
:10245600031D282A0310440D353E84000A128A15EE
:102466000A200A168A11C5000A128A150A200A16B7
:102476008A11C6000A128A150A200A168A11C7008E
:102486000A128A150A200A168A11C8004808A700E7
:102496004708A6004608A5004508A4004C08AB005E
:1024A6004B08AA004A08A9004908A8000A128A157A
:1024B6009F240A168A11831203132708C1002608CF
:1024C600C0002508BF002408BE005D2B0B3051025A
:1024D600031C6E2A6F2A1A2B3F30A7000030A60075
:1024E6000030A5000030A4000A30F6000030F700E6
:1024F6005108C200C3014208F8004308F9000A1651
:102506008A158B230A168A11760883120313C400D0
:1025160001300310C40DFF3E031D8C2A0310440D29
:10252600593E84000A128A150A200A168A11C50025
:102536000A128A150A200A168A11C6000A128A1574
:102546000A200A168A11C7000A128A150A200A16D4
:102556008A11C8004808AB004708AA004608A90027
:102566004508A8000A128A159F240A168A118312A2
:1025760003132708D0002608CF002508CE0024081C
:10258600CD000A30F0000030F1005108C200C3014E
:102596004208F2004308F3000A168A1594220A1626
:1025A6008A11700883120313C40001300310C40D8E
:1025B600FF3E031DD92A0310440D353E84000A123E
:1025C6008A150A200A168A11C5000A128A150A20D7
:1025D6000A168A11C6000A128A150A200A168A11D4
:1025E600C7000A128A150A200A168A11C800480866
:1025F600A7004708A6004608A5004508A4005008FD
:10260600AB004F08AA004E08A9004D08A8000A1200
:102616008A159F240A168A11831203132708C100FC
:102626002608C0002508BF002408BE005D2B3F30E9
:10263600A7000030A6000030A5000030A400510815
:10264600C20001300310C20DFF3E031D252B0310EF
:10265600420D353E84000A128A150A200A168A118E
:10266600C3000A128A150A200A168A11C4000A1221
:102676008A150A200A168A11C5000A128A150A2026
:102686000A168A11C6004608AB004508AA00440887
:10269600A9004308A8000A128A159F240A168A115F
:1026A600831203132708C1002608C0002508BF00AF
:1026B6002408BE0008000A168A150A230A168A117B
:1026C6008316031388010A168A1535210A168A11FC
:1026D600F401F40A01300A168A1588210A168A11AD
:1026E6009130F4008030F5000A168A1549230A163F
:1026F6008A110A168A1542220A168A110A168A159C
:102706006B220A168A110A128A110A200A168A11DF
:10271600831603135508C300C401C501C601460844
:10272600F3004508F2004408F1004308F0000130C8
:102736000A168A1589260A168A1173088312031344
:10274600AB007208AA007108A9007008A8003C3006
:10275600A700A030A600A530A5002730A4000A12C5
:102766008A159F240A168A11831203132708D40098
:102776002608D3002508D2002408D1000A168A119B
:1027860019200A168A11831203135108831603139C
:10279600C7004708D3003F3083120313A700FB305E
:1027A600A6000230A5000C30A400831603134F08C0
:1027B60083120313AB00831603134E08831203130D
:1027C600AA00831603134D0883120313A900831668
:1027D60003134C0883120313A8000A128A159F24B8
:1027E6000A168A1183120313270883160313CB00D4
:1027F60083120313260883160313CA0083120313D6
:10280600250883160313C9008312031324088316AD
:102816000313C80054080A168A1524250A168A11B5
:10282600F401F40A02300A168A1588210A168A115A
:10283600A23083160313C3004308A0005308C40044
:10284600C5014408A1004508A200D9300A128A1120
:102856004E200A168A11D930F4000030F5000A1607
:102866008A1549230A168A11D930F1000030F20080
:102876000A168A15F5210A168A11A930F100803048
:10288600F2000A168A15F5210A168A11B93083163E
:102896000313C3004308A0005808C400C501440838
:1028A600A1004508A200D9300A128A114E200A1644
:1028B6008A11D930F4000030F5000A168A1549232A
:1028C6000A168A11D930F1000030F2000A168A156C
:1028D600F5210A168A11B93083160313C30043087B
:1028E600A0005708C400C5014408A1004508A2007D
:1028F600D9300A128A114E200A168A11D930F400EC
:102906000030F5000A168A1549230A168A11D930AD
:10291600F1000030F2000A168A15F5210A168A110E
:10292600B53083160313C3004308A0005608C4003D
:10293600C5014408A1004508A200D9300A128A112F
:102946004E200A168A11D930F4000030F5000A1616
:102956008A1549230A168A11D930F1000030F2008F
:102966000A168A15F5210A168A11A930F100803057
:10297600F2000A168A15F5210A168A11AF30831657
:102986000313C3004308A0004B08A4004A08A30091
:102996004908A2004808A100D9300A128A114E201F
:1029A6000A168A11D930F4000030F5000A168A1585
:1029B60049230A168A11D930F1000030F2000A16AE
:1029C6008A15F5210A168A11AC30F1008030F20022
:1029D6000A168A15F5210A168A11BC30F1008030D4
:1029E600F2000A168A15F5210A168A1183160313B0
:1029F6004B08F3004A08F2004908F1004808F000C5
:102A06004130F700C030F6000030F5000030F40029
:102A16000A168A15E7250A168A110318132D142D8E
:102A2600192D831203130514851005114130F30087
:102A3600C030F2000030F1000030F00083160313BE
:102A46004B08F7004A08F6004908F5004808F40064
:102A56000A168A15E7250A168A110318332D342D0E
:102A6600542D831603134B08F3004A08F200490855
:102A7600F1004808F0004130F700D830F600003089
:102A8600F5000030F4000A168A15E7250A168A11A1
:102A960003184E2D4F2D542D831203130510851444
:102AA60005114130F300D830F2000030F10000305B
:102AB600F000831603134B08F7004A08F60049088E
:102AC600F5004808F4000A168A15E7250A168A1141
:102AD60003186E2D6F2D7C2B8312031305108510A2
:102AE60005157C2B0A128A11002883120313550838
:102AF6008039DA005A08E2005508DA005A07DB0086
:102B06005B08E400D41F882D892D8A2D641464087F
:102B160003198E2D8F2D9F2D640A031D932D942D41
:102B26009C2D0030D5000030D4000030D30000309A
:102B3600D200D417D501A72D0030D5000030D4001F
:102B46000030D3000030D20059088039DA005A0824
:102B5600E300630862060319B12DB22DB32D621787
:102B66005908DA005A07DB005B08E300D81FBC2DC2
:102B7600BD2DBE2D631463080319C22DC32DD32D9D
:102B8600630A031DC72DC82DD02D0030D900003093
:102B9600D8000030D7000030D600D817D901DB2D79
:102BA6000030D9000030D8000030D7000030D60001
:102BB600640863020318E02DE12D252E621FE42D23
:102BC600E52DE92D8030DA005A08E2066408DA00BD
:102BD6005A08E5006308DA005A08E4006508DA00D6
:102BE6005A08E3005208DA005A08E5005608DA00E7
:102BF6005A08D2006508DA005A08D6005308DA00E7
:102C06005A08E5005708DA005A08D3006508DA00C2
:102C16005A08D7005408DA005A08E5005808DA00BE
:102C26005A08D4006508DA005A08D8005508DA00B0
:102C36005A08E5005908DA005A08D5006508DA008E
:102C46005A08D900E5016308DA00DB015B08DD00FC
:102C560064085A02DC00031CDD035D08803AFF00AD
:102C660080307F02031D392E1A305C02031C3C2E75
:102C76003D2E7A2E8312031355085404530452042E
:102C8600031D462E482E0130492E0030DA005A0820
:102C9600E5000030D5000030D4000030D30000300D
:102CA600D2006308DA005A08E400822E651C5C2E06
:102CB6005D2E662E6508DA0003105A0C0138DB001B
:102CC6005B08E500682E0310E50C521C6B2E6C2E7B
:102CD6006D2EE5170130DA00550DD50CD40CD30C4A
:102CE600D20CDA0B6F2E0130DA005A08E407831291
:102CF600031363086402031C812E822E592E621B65
:102D0600852E862ED12E6408031D8A2E8B2E942E98
:102D16000030D5000030D4000030D3000030D2009F
:102D2600FF2F5608D207570803110318013E03194F
:102D36009D2ED307580803110318013E0319A42E2C
:102D4600D407590803110318013E0319AB2ED50702
:102D5600551CAE2EAF2E852F651CB22EB32EBC2E63
:102D66006508DA0003105A0C0138DB005B08E50041
:102D7600BE2E0310E50C521CC12EC22EC32EE51723
:102D86000130DA00550DD50CD40CD30CD20CDA0B6D
:102D9600C52E0130DA005A08E407852F5508803A17
:102DA600FF005908803A7F02031DE32E580854029B
:102DB600031DE32E57085302031DE32E5608520245
:102DC6000318E62EE72E3F2FFF30DA00FF30DB0038
:102DD600FF30DC00FF30DD005608DE005708DF005C
:102DE6005808E0005908E1005208DE025308031CA7
:102DF600530FFE2EFF2EDF025408031C540F042F20
:102E0600052FE0025508031C550F0A2F0B2FE10270
:102E16005E08DA075F0803185F0F122F132FDB0710
:102E260060080318600F182F192FDC0761080318B4
:102E3600610ADD075D08D5005C08D4005B08D30095
:102E46005A08D2008030DA005A08E206E509E50A97
:102E56006508031D2F2F302F4D2F0130D20700306C
:102E660003180130D307003003180130D4070030AF
:102E760003180130D5074D2F5608D2025708031CF8
:102E8600570FD3025808031C580FD4025908031CC5
:102E9600590FD5025508540453045204031D542FE8
:102EA600552F812F6508031D592F5A2F812F00306A
:102EB600D5000030D4000030D3000030D200FF2F00
:102EC6000130DA000310D20DD30DD40DD50DDA0B77
:102ED600652FE51F6F2F702F712F5214651C742FED
:102EE600752F782F0314E50D7A2F0310E50D64086E
:102EF60003197E2F7F2F812F0130E402D41F842FE8
:102F0600852F632FE301E51F892F8A2F982F6508E8
:102F16007F3903198F2F902F932FE301E30A982F00
:102F2600521C962F972F982F902F630803199C2FCA
:102F36009D2FD12F0130D207003003180130D3075F
:102F4600003003180130D407003003180130D507CC
:102F5600551CAE2FAF2FD12F5208DA005308DB00D5
:102F66005408DC005508DD000130DE005D0DDD0C87
:102F7600DC0CDB0CDA0CDE0BB92F5D08D5005C0827
:102F8600D4005B08D3005A08D200640A0319CC2F78
:102F9600CD2FD12F0130DA005A08E407640A03194D
:102FA600D52FD62FDB2F6408031DDA2FDB2FE92F51
:102FB6000030D5000030D4000030D3000030D200FD
:102FC6006408031DE72FE82FE92FE201641CEC2FAC
:102FD600ED2FEF2FD417F32F7F30DA005A08D405E0
:102FE6006408DA0003105A0CDB005B08D500E21F08
:0A2FF600FD2FFE2FFF2FD517080056
:10321A00F00070088312031393000800F00070088E
:10322A00831203138800080064008001840A0406DC
:10323A000319003404061A290A128A1103200A16ED
:10324A008A158312031313080800730872047104A1
:10325A00700403193129322934298030F306080011
:10326A0000300A168A1554210A168A1501300A16E0
:10327A008A1554210A168A150800F100F0013A301D
:10328A007102031849294A29522930307102031C54
:10329A004F2950295229F001F00A700C0800F30056
:1032AA0083120313061073080A168A1513210A16C5
:1032BA008A158312031386140B30F2006230F10070
:1032CA00F10B6529F20B652900008312031386109E
:1032DA000800F30083120313061473080A168A15EA
:1032EA0013210A168A158312031386146830F20012
:1032FA00E430F100F10B7F29F20B7F2900008312E1
:10330A00031386100800F6007603031D8D298E2903
:10331A009A2974087F3EF5007508F70077080A169F
:10332A008A1554210A168A15AB2902307606031D1E
:10333A009F29A029AB297408BF3EF5007508F7003C
:10334A0077080A168A1554210A168A150800803049
:10335A0083120313E9066D08D5006C08D4006B08C4
:10336A00D3006A08D2006908D9006808D80067083B
:10337A00D7006608D6000A168A1178250A168A1511
:10338A00831203135508E9005408E8005308E700BC
:10339A005208E6000800F401F501701CD529D62967
:1033AA00DC297208F4070318F50A7308F5070130D7
:1033BA000310F20DF30DFF3E031DDD29013003104A
:1033CA00F10CF00CFF3E031DE42970087104031D83
:1033DA00EF29F029D2297508F1007408F0000800D5
:1033EA000A2A7208FF00710884000A128A1500204E
:1033FA000A168A150A128A15CD200A168A1501306C
:10340A00F1070318F20A0030F20772088312031355
:10341A00FF00710884000A128A1500200A168A150C
:10342A00003A031D192A1A2AF6290800F800F4019D
:10343A00F5017008F200F3017208F6007308F7004C
:10344A00781C282A292A2F2A7608F4070318F50A4D
:10345A007708F50701300310F60DF70DFF3E031D3F
:10346A00302A0310F80C7808031D3C2A3D2A252A25
:10347A007508F1007408F00008008312031307109E
:10348A000330F2009730F100F10B492AF20B492A76
:10349A004E2A00300A168A150D210A168A150A16AE
:1034AA008A1521210A168A15F10071088316031359
:1034BA00D5000330F2009730F100F10B622AF20BCB
:1034CA00622A672A8312031307140800831203135C
:1034DA0087100330F2009730F100F10B722AF20BD9
:1034EA00722A772A00300A168A150D210A168A15B9
:1034FA000A168A1521210A168A15F10071088316FF
:10350A000313D4000330F2009730F100F10B8B2A39
:10351A00F20B8B2A902A831203138714080070086F
:10352A0071040319992A9A2AC92AF501F50AA82ABF
:10353A0001300310F00DF10DFF3E031D9E2A0130EC
:10354A00F4007408F507F11FAB2AAC2A9D2A71080A
:10355A007302031DB22A70087202031CB52AB62A26
:10356A00BC2A7008F2027108031CF303F30201304B
:10357A000310F10CF00CFF3E031DBD2A0130F502C9
:10358A00031DC82AC92AAC2A7308F1007208F00080
:10359A0008008316031318128312031398171813BB
:1035AA001816831603139816831203130C12831624
:1035BA0003130C1218138312031318119810FC2A00
:1035CA0083160313181583160317871119308316E8
:1035DA00031399009A01092B8316031318118316F2
:1035EA00031787110C30831603139900EF2A710809
:1035FA00003A0319012B092B7008043A0319E52A2A
:10360A000C3A0319F12A092B0800303083160317E4
:10361A0088008901831603138501880186018312B4
:10362A000313860185018801890183160313071094
:10363A0083120313071483160313871083120313C9
:10364A008714831603130711831203130715F00156
:10365A00F101F20120300A168A1103200A168A158E
:10366A007030831603138F040F140830F0000030F3
:10367A00F1000A168A15CE220A168A150A168A1522
:10368A0073240A168A150800F901FA016E2B7908C3
:10369A007407F7007508F6000318F60AF91F562B87
:1036AA00F6037608F800780883120313FF007708F8
:1036BA0084000A128A1500200A168A150A168A1523
:1036CA006E210A168A150130F9070318FA0A003022
:1036DA00FA0779087407F7007508F6000318F60A5E
:1036EA00F91F782BF6037608F8007808831203137B
:1036FA00FF00770884000A128A1500200A168A1524
:10370A00003A031D892B8A2B4C2B0800FB01FC0174
:10371A00760877040319922B932BCA2BFD01FD0A15
:10372A00A12B01300310F60DF70DFF3E031D972B59
:10373A000130FA007A08FD07F71FA42BA52B962B58
:10374A0001300310FB0DFC0DFF3E031DA62B77086D
:10375A007902031DB22B76087802031CB52BB62B0F
:10376A00BD2B7608F8027708031CF903F9027B14CB
:10377A0001300310F70CF60CFF3E031DBE2B01307F
:10378A00FD02031DC92BCA2BA52B7C08F7007B0859
:10379A00F600080000307005F80000307105F900E5
:1037AA0080307205FA007F307305FB007B087A04CB
:1037BA0079047804031DE22BE32BEB2B0030F30092
:1037CA000030F2000030F1000030F00000307405E3
:1037DA00F80000307505F90080307605FA007F3070
:1037EA007705FB007B087A0479047804031DFE2B15
:1037FA00FF2B072C0030F7000030F6000030F500F0
:10380A000030F40077087306031D152C760872063B
:10381A00031D152C75087106031D152C74087006F6
:10382A000319182C192C1B2C03101C2C0314080028
:10383A008312031323082204210420040319262CCB
:10384A00272C6A2CA901A90A372C0130A8000310D9
:10385A00A00DA10DA20DA30DA80B2C2C0130A800C0
:10386A002808A907A31F3A2C3B2C2A2C2308270235
:10387A00031D492C22082602031D492C2108250272
:10388A00031D492C20082402031C4C2C4D2C5B2CB4
:10389A002008A4022108031C210FA5022208031CE8
:1038AA00220FA6022308031C230FA70201300310CC
:1038BA00A30CA20CA10CA00CFF3E031D5C2C013032
:1038CA00A902031D692C6A2C3B2C2708A300260891
:1038DA00A2002508A1002408A000080000300A164A
:1038EA008A1513210A168A153430F500F130F400CE
:1038FA00F40B7D2CF50B7D2C822C30300A168A15A0
:10390A0054210A168A150D30F500FB30F400F40B29
:10391A008C2CF50B8C2C912C30300A168A155421DC
:10392A000A168A151D30F5009130F400F40B9B2C11
:10393A00F50B9B2C30300A168A1554210A168A1563
:10394A0038300A168A1554210A168A150C300A16B6
:10395A008A1554210A168A1501300A168A15542125
:10396A000A168A1506300A168A1554210A168A1565
:10397A000230F6000430F500BA30F400F40BC32C20
:10398A00F50BC32CF60BC32C00000800F601F31F3D
:10399A00CF2CD02CD72CF209F309F20A0319F30A17
:1039AA00F601F60AF11FDA2CDB2CE02CF009F109FA
:1039BA00F00A0319F10A700871040319E52CE62CC0
:1039CA00152DF501F50AF42C01300310F00DF10D57
:1039DA00FF3E031DEA2C0130F4007408F507F11FBD
:1039EA00F72CF82CE92C71087302031DFE2C7008C1
:1039FA007202031C012D022D082D7008F2027108B3
:103A0A00031CF303F30201300310F10CF00CFF3E28
:103A1A00031D092D0130F502031D142D152DF82C57
:103A2A0076080319192D1A2D1F2DF209F309F20A26
:103A3A000319F30A7308F1007208F0000800FC0089
:103A4A006430F7000030F8007C0883120313A400E6
:103A5A00A5012408F9002508FA000A128A15D720B8
:103A6A000A168A15770883120313A60026088316F6
:103A7A000313D8000A30F0000030F1000A30F700D2
:103A8A000030F8007C0883120313A400A50124085F
:103A9A00F9002508FA000A128A15D7200A168A158B
:103AAA007808F3007708F2000A168A15CB240A165A
:103ABA008A15700883120313A600260883160313B7
:103ACA00D7000A30F0000030F1007C08831203139B
:103ADA00A400A5012408F2002508F3000A168A1595
:103AEA00CB240A168A15700883120313A600260827
:103AFA0083160313D60008000030FC000030FB00D8
:103B0A000030FA000030F90073087204710470047E
:103B1A000319902D912DDE2DFD01FD0AA12D0130F5
:103B2A00F8000310F00DF10DF20DF30DF80B962DC0
:103B3A000130F8007808FD07F31FA42DA52D942D58
:103B4A000130F8000310F90DFA0DFB0DFC0DF80B0E
:103B5A00A72D73087702031DBC2D72087602031D78
:103B6A00BC2D71087502031DBC2D70087402031C5C
:103B7A00BF2DC02DCF2D7008F4027108031C710FE0
:103B8A00F5027208031C720FF6027308031C730F06
:103B9A00F702791401300310F30CF20CF10CF00C5B
:103BAA00FF3E031DD02D0130FD02031DDD2DDE2D4C
:103BBA00A52D7C08F3007B08F2007A08F100790849
:103BCA00F000080000307005F80000307105F900B7
:103BDA0080307205FA007F307305FB007B087A0497
:103BEA0079047804031DFA2DFB2D032E0030F3000F
:103BFA000030F2000030F1000030F00000307405AF
:103C0A00F80000307505F90080307605FA007F303B
:103C1A007705FB007B087A0479047804031D162EC5
:103C2A00172E1F2E0030F7000030F6000030F50086
:103C3A000030F400F31F222E232E472E0030F80006
:103C4A000030F9000030FA008030FB007008F802FA
:103C5A007108031C710F322E332EF9027208031CED
:103C6A00720F382E392EFA027308031C730F3E2E78
:103C7A003F2EFB027B08F3007A08F2007908F10074
:103C8A007808F000F71F4A2E4B2E6F2E0030F800EE
:103C9A000030F9000030FA008030FB007408F802A6
:103CAA007508031C750F5A2E5B2EF9027608031C41
:103CBA00760F602E612EFA027708031C770F662EA4
:103CCA00672EFB027B08F7007A08F6007908F500F0
:103CDA007808F4008030F3068030F706770873021C
:103CEA00031D812E76087202031D812E750871024A
:103CFA00031D812E740870020318842E852E872EC8
:103D0A000310882E03140800F800780803198E2E71
:103D1A008F2EA32EF31F922E932EA32E7009FA0034
:103D2A007109FB007209FC007309FD00FA0A031904
:103D3A00FB0A0319FC0A0319FD0AAB2E7308FD00DE
:103D4A007208FC007108FB007008FA00730872041C
:103D5A0071047004031DB22EB32EBC2E0030F30082
:103D6A000030F2000030F1000030F000422F9630AF
:103D7A00F4007408F900CE2E0130F4007408F90733
:103D8A0001300310FD0CFC0CFB0CFA0CFF3E031D6A
:103D9A00C62EFE307D05031DD32ED42EC12EF02E45
:103DAA000130F4007408F9070130FA0700300318EB
:103DBA000130FB07003003180130FC0700300318FC
:103DCA000130FD0701300310FD0CFC0CFB0CFA0C52
:103DDA00FF3E031DE82EFF307D05031DF52EF62E4E
:103DEA00D52E022F0130F9020130F4000310FA0D2A
:103DFA00FB0DFC0DFD0DF40BFB2EFC1B052F062FF6
:103E0A000C2F0230790203180B2F0C2FF72E79187A
:103E1A000F2F102F182FFF30FA05FF30FB057F30C8
:103E2A00FC05FF30FD050310F90C7908F400F501D3
:103E3A00F601F70118300310F40DF50DF60DF70D24
:103E4A00FF3E031D202F7408FA047508FB04760848
:103E5A00FC047708FD0478080319342F352F3A2F0C
:103E6A00F31F382F392F3A2FFD177D08F3007C08EE
:103E7A00F2007B08F1007A08F00008007008F800E8
:103E8A007108F9007208FA000310790D7A0DFB0027
:103E9A007B0883120313A5002508031D552F562FEF
:103EAA005F2F0030F3000030F2000030F1000030E4
:103EBA00F000FF2F7408F8007508F9007608FA0078
:103ECA000310790D7A0DFB007B08A4002408031D5A
:103EDA006F2F702F712F562FF117FF30F005FF301B
:103EEA00F1050030F205F517FF30F405FF30F5054E
:103EFA000030F6050030A3000030A2000030A10017
:103F0A000030A0007F30A50298302407F800780816
:103F1A00A5021830F8007808A4000130F800031050
:103F2A00A00DA10DA20DA30DF80B942F7608720215
:103F3A00031DA52F75087102031DA52F74087002B1
:103F4A00031CA82FA92FB42F7408F0027508031CAC
:103F5A00750FF1027608031C760AF202201401306A
:103F6A000310F00DF10DF20DFF3E031DB52F0130C8
:103F7A00A402031DC12FC22F922FA51FC52FC62F22
:103F8A00E02F2508803A973E0318CC2FCD2FCE2F4D
:103F9A00562F01300310A30CA20CA10CA00CFF3E5B
:103FAA00031DCF2F0130F8007808A507031DDE2F67
:103FBA00DF2FCE2FF72F18302502031CE52FE62F0F
:103FCA00F22F562F0130F8000310A00DA10DA20DFB
:103FDA00A30DF80BE92F0130A5022508031DF62FC2
:103FEA00F72FE72F2308F3002208F2002108F10037
:0E3FFA002008F0000800FF3FFF3FFF3FFF3FA1
:04400E00D420FF3F7C
:00000001FF
