:060000000A128A110C280F
:10000800FE00030EF2000A08F3000A128A11812882
:100018000A128A110F28F801F90183010A128A11BC
:10002800A92883160317880104308900831603134F
:100038008801023086008901831203138601880132
:1000480089017030831603138F040F140830F400ED
:100058000030F5000A128A114C200A128A11831204
:1000680003130C13831603130C170B178B17831228
:1000780003138C11831603138C158516F401F501EF
:10008800F60124300A128A11C5200A128A110800C2
:10009800831603139F131F129F12831203131F0843
:1000A800C33928389F001F142130F600F60B5A2850
:1000B80070283F30831203139F058028831203138F
:1000C8001F083F3940389F008028831203131F08F8
:1000D8003F3980389F0080287508003A0319752831
:1000E80080287408013A03195D28053A0319622823
:1000F8000C3A0319692880280800831203130C1F7F
:100108008628872895281F0CF100710C0F390A3AA8
:10011800031D8F28902894281E08F1007108F80004
:100128000C138C1D98289928A22878080A128A117D
:10013800ED200A128A11831203138C1173088A00A6
:10014800720E8300FE0E7E0E09000A128A11152017
:100158000A128A11831203139F1420308312031387
:10016800A000A00BB52800000A128A11DB200A1291
:100178008A117808831203138800B8280A128A1192
:100188000C28F700831603138712771DCC28CD2877
:10019800D128760894008715D52874087604940029
:1001A80087117708750483120313940008008312DB
:1001B80003139F18E028E128EC281F08C3392838C2
:1001C8009F002130F400F40BE728831203139F14D7
:0E01D8000800F0007008831203139300080063
:08400000FF3FFF3FFF3FFF3FC0
:04400E00D420FF3F7C
:00000001FF
