:060000000A128A110E280D
:10000800FE00030E83120313A4000A08A5000A12B7
:100018008A1154290A128A11112883120313AB0179
:10002800AC01AD01AE01AF01B001B101B201B30144
:1000380083010A128A11102AF80078080319252862
:1000480026283A28F31F29282A283A287009FA006E
:100058007109FB007209FC007309FD00FA0A031913
:10006800FB0A0319FC0A0319FD0A42287308FD005C
:100078007208FC007108FB007008FA00730872042B
:1000880071047004031D49284A2853280030F300DE
:100098000030F2000030F1000030F000D92896302E
:1000A800F4007408F90065280130F4007408F907B1
:1000B80001300310FD0CFC0CFB0CFA0CFF3E031D79
:1000C8005D28FE307D05031D6A286B28582887287F
:1000D8000130F4007408F9070130FA0700300318FA
:1000E8000130FB07003003180130FC07003003180B
:1000F8000130FD0701300310FD0CFC0CFB0CFA0C61
:10010800FF3E031D7F28FF307D05031D8C288D28A9
:100118006C2899280130F9020130F4000310FA0D17
:10012800FB0DFC0DFD0DF40B9228FC1B9C289D2853
:10013800A328023079020318A228A3288E28791848
:10014800A628A728AF28FF30FA05FF30FB057F3027
:10015800FC05FF30FD050310F90C7908F400F501E2
:10016800F601F70118300310F40DF50DF60DF70D33
:10017800FF3E031DB7287408FA047508FB047608C7
:10018800FC047708FD0478080319CB28CC28D1286B
:10019800F31FCF28D028D128FD177D08F3007C084D
:1001A800F2007B08F1007A08F00008000310720DD5
:1001B800730DF4007408FA007A08031DE428E52892
:1001C800EE280030F3000030F2000030F10000307B
:1001D800F00053297008F4007108F5007208F60061
:1001E8007308F7001F300310F70CF60CF50CF40C2D
:1001F800FF3E031DF7287408F8007808F900F21785
:10020800FF30F005FF30F105FF30F2050030F3054F
:100218009630FA02FA1F112912292C297A08803AF5
:10022800973E0318182919291A29E52801300310BF
:10023800F30CF20CF10CF00CFF3E031D1B290130EE
:10024800F4007408FA07031D2A292B291A294329BF
:1002580020307A02031C312932293E29E528013051
:10026800F4000310F00DF10DF20DF30DF40B352928
:100278000130FA027A08031D4229432933297908F3
:100288000319472948295329F009F109F209F30903
:10029800F00A0319F10A0319F20A0319F30A08000C
:1002A8000C1F572958297F291F0CA000200C0F3933
:1002B8000A3A031D602961297E291E08A000A101B0
:1002C800A201A3012308F3002208F2002108F1008B
:1002D8002008F00000300A128A1120200A128A1120
:1002E800730883120313B2007208B1007108B000DA
:1002F8007008AF000C138C1D8229832999293208B4
:10030800F3003108F2003008F1002F08F0000A125B
:100318008A11DA200A128A1170080A128A115522E3
:100328000A128A11831203138C1125088A00240EDD
:100338008300FE0E7E0E0900831603178801043021
:10034800890083160313880102308600890183120D
:100358000313860185018801890170308316031310
:100368008F040F14083083120313A6000030A7006F
:100378000A128A11DC210A128A11831203130C1340
:10038800831603130C170B178B17831203138C1187
:10039800831603138C15851683120313A601A70170
:1003A800A80124300A128A1137220A128A11080079
:1003B800831603139F131F129F12831203131F0820
:1003C800C33928389F001F14203083120313A80054
:1003D800A80BEC290000FD293F309F050F2A1F08B4
:1003E8003F3940389F000F2A1F083F3980389F0047
:1003F8000F2A831203132708003A0319042A0F2A25
:100408002608013A0319F029053A0319F3290C3A89
:100418000319F8290F2A08000A128A11A0210A12C2
:100428008A11831203139F14203083120313AA0026
:10043800AA0B1C2A0000831203139F18242A252ABA
:100448001F2A1F08C33928389F002030831203133E
:10045800AA00AA0B2D2A0000831203139F141F2A37
:100468000A128A110E2883120313A9008316031394
:10047800871283120313291D422A432A492A28086E
:1004880083160313940087154F2A26082804831619
:100498000313940087118312031329082704940077
:0E04A8000800F0007008831203139300080090
:08400000FF3FFF3FFF3FFF3FC0
:04400E00D420FF3F7C
:00000001FF
